:020000040000FA
:10000000E8530010E1000000E5000000E7000000F8
:10001000E9000000EB000000ED000000000000001F
:10002000000000000000000000000000EF000000E1
:10003000F100000000000000F30000009D0200003D
:10004000F70000007F22000043220000072200008A
:10005000F7000000F7000000F7000000FF29000093
:10006000F700000001280000F7000000F700000082
:10007000F7000000F7000000F7000000F7000000A4
:10008000F7000000F7000000F700000075230000F3
:10009000F7000000F7000000F7000000F700000084
:1000A000F7000000F7000000F7000000F700000074
:1000B000FF0A0000F7000000F7000000F700000052
:1000C000F7000000F7000000F7000000DFF80CD098
:1000D00003F08EF800480047C7050000E853001001
:1000E00005480047FEE7FEE7FEE7FEE7FEE7FEE71E
:1000F000FEE7FEE7FEE7FEE7CD0000005E48D0F831
:1001000088106FEA11618A075C49D0F80C2102F06F
:1001100003020CD02AB1012A41D0022A45D0032A79
:100120002DD1D0F80401564AC0B2401C43E02AB198
:10013000012A12D0022A23D0032A20D150F8882F76
:10014000C2F30742C36F521CDBB25B1C00685A4308
:10015000C0F30E00401C4B4B0DE050F8882FC2F34B
:100160000742C36F521CDBB25B1C00685A43C0F3EA
:100170000E00454B401C5843B0FBF2F0086070473E
:1001800050F8882FC2F30742C36F521CDBB25B1CCE
:1001900000685A43C0F30E00401C0004ECE7D0F89E
:1001A00004013A4AC0B2401C05E0D0F804014FF403
:1001B0000042C0B2401CB2FBF0F0DFE770B52E4841
:1001C0002021C0F8A011D0F8A011890604D500BFE5
:1001D000D0F8A0114906FBD500F180000323C0F838
:1001E00084304FF00005C0F82851C0F82C514FF072
:1001F0000104C0F88C40264941604FF0AA01C1605B
:100200004FF05502C2600460C160C260A0F180007E
:10021000D0F888607601FBD540F8803FC160C260AD
:10022000A0F18000D0F8886016F0407FFAD000F18D
:10023000A00023264660C160C2600460C160C26045
:10024000A0F1A000D0F8A8406405FBD540F8A03F7D
:10025000C160C260A0F1A000D0F8A81011F4407FE6
:10026000FAD00C49C0F8C410C0F8C85143F23A01A2
:1002700001600948056070BD00C00F404C000010CF
:1002800000093D0000127A0000366E01001BB70025
:1002900063000500DE87280408ED00E00D480168D2
:1002A000491C016070470B4A002111600A4A12681C
:1002B000B2FBF0F0B0F1807F0BD220F07F424FF024
:1002C000E020521E4261054BF8221A70816107211D
:1002D00001617047500000104C00001023ED00E059
:1002E00002E008C8121F08C1002AFAD170477047FF
:1002F000084400EB104080B270477047FFFFFFFFDB
:1003000070B5FE4C6178002920D00646084604F0FE
:10031000E3FC80B101280ED00A2817D1607804F0E0
:100320001BFC012812D11C2004F088FC054676B184
:1003300002F0E2FB0DE0F149002340F2E932C91C72
:10034000607804F029FCA068401CA06070BD02F039
:100350003BFC024629466078BDE8704005F0E8B8ED
:10036000E7490A2804D10A7D9206FCD50D220A70BD
:100370000A7D9206FCD5087070477CB5E1A2E34C7B
:10038000D2E90012CDE9001200216E460123755C0E
:1003900003FA05F203FA01F5054205D0032901D25B
:1003A000A26306E0A26504E0032901D2E26300E053
:1003B000E265491C0829EAD37CBD70B500250124FB
:1003C00002F0A6FC04FA05F1084206D0284602F025
:1003D000A5FC0146284602F0A9F96D1CEDB2022DDC
:1003E000EED3002544F6206602F095FC04FA05F1F0
:1003F000084218D0022D0ED0032D284605D002F059
:1004000091FC301A81B2681C0BE002F08BFC301AB0
:1004100081B2032005E0284602F084FC301A81B244
:10042000042002F0B9F96D1CEDB2042DDCD30025D7
:1004300002F062FC04FA05F108420AD0284601F0F5
:1004400021FD0146284602F078FC0020401C64286B
:10045000FCD96D1CEDB2062DEAD3002502F067FC35
:1004600004FA05F6304206D002F064FC3040C1B216
:10047000284601F0EBFD02F042FC304205D0284650
:1004800001F0D5FD294602F065FC6D1CEDB2082D8A
:10049000E4D3002502F036FC04FA05F6304202D01F
:1004A000284601F0ABFE02F030FC304206D0284670
:1004B00001F09FFE0146284602F057FC6D1CEDB28C
:1004C000032DE7D970BD00B5817887B0C01C02F05C
:1004D000EEFB58B101A802F00AFC05980DF1040CDE
:1004E0000090BCE80F00FFF768FF082007B05DF838
:1004F00004EB05E7814910B58978884202D1184696
:10050000FFF7E1FF002010BD7C4B10B55B789842EF
:1005100007D141B1012906D0052902D11046FFF7C4
:10052000D2FF002010BD012010BD10B501224021D6
:10053000002000F0E0FC012294052146002000F09C
:10054000DAFC4021002000F0E4FC2146BDE8104028
:10055000002000F0E6BC10B54021002000F0E1FCD6
:100560006B4C0020401CA042FCD34021002000F036
:10057000D0FC0020401CA042FCD310BD01784229D1
:100580001DD1417809291AD181784C2917D1C17818
:100590006F2914D10179612911D1417964290ED1D2
:1005A000817944290BD1C179612908D1017A742953
:1005B00005D1417A612902D1807A5D2801D00020DD
:1005C000704701207047A4B000F0A7F8FFF7F6FDD0
:1005D000FFF7ABFF01F09EFE53208DF87000C020A6
:1005E0008DF87100A8208DF8720001208DF873003D
:1005F0009A208DF8740000208DF875008DF8760033
:100600008DF877006C208DF87800FF208DF8790048
:100610000A211CA801F01EFF384D1CAEED1C0DF187
:10062000480840F2E939EC1E1CA801F034FF701CA8
:1006300002F0A6FB0EA802F0EAFC2822414668461A
:1006400002F0A5FD0DF1380CBCE80F0002F022FD10
:100650000EA802F0DCFC38220EA9684602F097FDD5
:100660009DF800002978884224D10EA802F0CFFC22
:1006700038220EA9684602F08AFD9DF801006978CB
:10068000884217D10EA802F0C2FC38220EA9684693
:1006900002F07DFD9DF80200A97888420AD10EA8DB
:1006A00002F0B5FC38220EA9684602F070FD9DF8F4
:1006B0000300E87003F064FEAFF2C71203210020CC
:1006C00005F0E4F8A07010B1494605F00DF9AFF25D
:1006D000C7130A220021032004F0DAFA607010B177
:1006E000494604F017FB4FF0E027207800289BD103
:1006F0003869C00301D505F0BBF80BE0000000101D
:10070000000001401C1D1F020304050600C0092053
:1007100040420F0003F0DEFFE7E710B5FFF74EFDA4
:100720001448016A41F030410162016C41F07C01E2
:1007300001641148016921F00F010161016941F073
:100740000A0101610D4883210173092101702121F2
:100750008162002101710321017309480A210068A7
:10076000B0FBF1F14FF0E020491E4161052101612C
:1007700010BD000000C0092000C002400000014080
:100780004C000010C1F12002904010B5FE4A4FF419
:100790000074531508E0002801DA946500E0D46580
:1007A0009365D3654000491E0029F4D110BD70B592
:1007B0000546F6480078012813D04FF0A04045F4D4
:1007C000807181620121416200210213436BDB07CA
:1007D00002D0491C9142F9D300214162056BA8B2B5
:1007E00070BDE94C206C40F40070206420214FF073
:1007F000FF30FFF7C7FF04210620FFF7C3FF0521E5
:100800000120FFF7BFFF05212846FFF7BBFF00F0DF
:10081000D9F90025284661154FEA4505A165E1652E
:10082000626D920501D545F00105401C1028F3D3F7
:1008300000F0C8F9D3E770B50546D4480C460078F7
:1008400001280ED04FF0A04245F480709062D4622F
:1008500000201113536BDB0702D0401C8842F9D3F0
:1008600070BDC948016C41F40071016420214FF052
:10087000FF30FFF787FF04210520FFF783FF0521E5
:100880000120FFF77FFF05212846FFF77BFF0221AC
:100890000846FFF777FF10212046FFF773FFBDE8FA
:1008A000704000F08FB92DE9FC47B84C0025362088
:1008B0002570009069466268084690470198252196
:1008C000B1EB106F01D101202070B148016841F0F7
:1008D00080410160B048AF4981602178002968D02B
:1008E000016921F470210161A748016C41F4807114
:1008F000C0F840104FF0A0444FF44F4020607820E3
:10090000C4F800016420401EFDD14FF00208C4F875
:100910000080302060604001606143F20F70206110
:100920001227E7607801C4F800014FF40060A0616D
:100930006426761EFDD1A5614FF400410020FFF72B
:100940007AFF4FF480190020FFF731FF10F4084FB1
:1009500002D0761C4E45F6D30220FFF728FF06464C
:100960000320FFF724FF4FF6F07108408B4940EA5F
:10097000064088420DD14FF440510020FFF75BFF45
:1009800000260120FFF713FF800602D4761C4E4597
:10099000F7D3DFF80C9200264FF4803A1020FFF7CF
:1009A00006FF00214A46491C9142FCD3C10709D1E8
:1009B00005E0C16821F00F01491DC1609AE7761C6E
:1009C0005645EBD341070CD5616841F001016160E8
:1009D000D4F8001141F48061C4F800111521A16020
:1009E00000E0A760800701D5A56102E04FF48070A8
:1009F000A0616C4881882164418861640088A0649A
:100A0000694F6A4BA7F16401002001F1200200BF89
:100A100000EB400607EB462641F8306001EBC006CC
:100A2000736042F8305002EBC006401C7560042829
:100A3000EED3C4F80811C4F80C210320C4F8100147
:100A4000C4F8185158490020594E243901F11802B0
:100A500000EB400306EB432341F8303001EBC003C9
:100A60005D6042F82050401C0328F1D304F1AC042F
:100A700021676267C4F87880E5674FF02600C4F804
:100A800054014C494FF08800086001F104014FF611
:100A9000FF700860606D40F00300606554F8AC0DB5
:100AA00040F001002060BDE8FC8743484FF08051D2
:100AB0000160704741484FF0805101607047F0B5C8
:100AC0004FF0A045D5F82811374E0388243E021D6B
:100AD00056F83140DB1C9B0803D080CA5B1E80C4E3
:100AE000FBD1008806EBC102401E40F04040491C8B
:100AF0005060032900D10021C5F82811F0BD2DE96F
:100B0000F0412C4F4FF0A0463F1FDFF8A88034E0A3
:100B10002849091D086000072FD5D6F8184128E09C
:100B20002148443850F8340041001CD5C0F30A0570
:100B3000ED1E40F2EA518D4215D82149084212D1EA
:100B400045F0004002F06EFB68B1174A011D643A9F
:100B5000ED1C52F83420AB0803D020CA5B1E20C124
:100B6000FBD103F0ABFF641C042C00D10024C6F8B9
:100B70001841D6F81401A042D2D13868D8F8001034
:100B80000840C5D1BDE8F08100C009204400001034
:100B9000C4C00F400501155000C00240905C002009
:100BA000404B4C00B200001044010010FF050080D3
:100BB00044190010E40F005000E100E080E100E083
:100BC0000000901B0448016C21F400710164411580
:100BD0008165C1657047000000C0092070B50D46F1
:100BE00004460121080300F0BEF8002020604FF405
:100BF0000016182000F0A4F805EB8511B0FBF1F009
:100C0000401E46EA0020206070BD016821F40011FA
:100C1000016000214FF4805000F0A5B8334901EB8A
:100C200080000069C0F30B107047026822F0E06298
:100C30000260026842EA016101607047026822F4C2
:100C400080320260002903D0016841F480310160E4
:100C50007047026822F400120260002903D0016884
:100C600041F4001101607047026822F000620260E6
:100C7000002903D0016841F000610160704710B5A0
:100C8000C46801238B409C43C460002A02D0C16821
:100C90001943C16010BD01238B400168012A02D0B5
:100CA0009943016070471943FBE700EB810000693D
:100CB000C0F30B10704700EB8100006912B100F027
:100CC000004001E000F08040002800D00120704783
:100CD00040687047406811B100F0004001E000F04A
:100CE0008040002800D001207047000000400340F1
:100CF00010B5344A0323202802D300BFA0F12000FE
:100D000002D202F5D47201E002F5D672146803FA39
:100D100000F324EA03041460136801FA00F143EAC3
:100D20000103136010BD2749202802D2D1F8A81171
:100D300002E0D1F8AC112038C14001F00300704747
:100D4000214900B50A68FFF7EEFF30B1012807D04E
:100D5000022805D0032803D101E0042000E0082088
:100D6000B2FBF0F000BD174A184B012907D000294B
:100D700004D152F8C41F834319401160704752F8E0
:100D8000C41F18400143F8E711490020086030BF34
:100D900070471049042008600D490820086030BFE2
:100DA00070470C490420086009490920086030BFD9
:100DB000704708490420086005490320086030BFD7
:100DC0007047000000C00F404C000010DEF7EFEF4E
:100DD000C0C00F4010ED00E022480F2101604FF02D
:100DE00000018160C1607047704701231E4A834043
:100DF000012908D0002905D1D2F84C0130EA0300BE
:100E0000C2F84C017047D2F84C011843F8E70123AF
:100E1000154A8340012908D0002905D1D2F848019C
:100E200030EA0300C2F848017047D2F8480118437D
:100E3000F8E710B50C4904460020C1F8400161787C
:100E40002078FFF7E4FFA1782078BDE81040CCE7D8
:100E500004490A684FF0010303FA00F342EA03026F
:100E60000A60704740C10F4000C00F40014600209B
:100E7000052905D2DFE801F00305080B0E00AF4895
:100E80007047AE4820307047AC4840307047AB48A0
:100E900060307047A948803070470146002005291E
:100EA00005D2DFE801F00305080B0E00A3487047E8
:100EB000A24820307047A148403070479F486030BA
:100EC00070479E488030704701460020052905D2B2
:100ED000DFE801F00305080B0E00984870479748BB
:100EE00020307047954840307047944860307047D4
:100EF00092488030704770B50C461546FFF7B6FF34
:100F0000002805D001680DB1214300E0A143016034
:100F100070BD10B50C46FFF7A9FF002800D0846112
:100F200010BD10B50C46FFF7A1FF002800D0C4612A
:100F300010BD10B5FFF79AFF002800D0406910BD22
:100F400010B57F4B50EA020403D0022804D050B100
:100F50000BE0C3F8901010BD12B1012A09D004E0D3
:100F6000C3F8B01010BD012A00D0FEE7C3F89410FA
:100F700010BDC3F8B41010BD10B5714B50EA020497
:100F800003D0022804D050B10BE0D3F884000EE067
:100F900012B1012A09D004E0D3F8A40007E0012A25
:100FA00000D0FEE7D3F8880001E0D3F8A800C840DD
:100FB00000F0010010BD624A10B1022803D0FEE724
:100FC000C2F88C107047C2F8AC10704793E7A0E7E6
:100FD000A7E7AEE7B4E7CFE7EDE770B50C461546F7
:100FE000FFF744FF002805D001690DB1214300E05F
:100FF000A143016170BD70B50D4614461E46FFF752
:101000004CFF00280BD036B115B14188214305E0D3
:101010000188214306E01DB14188A143418070BD94
:101020000188A143018070BD70B50D4614461E466F
:10103000FFF733FF00280BD036B115B1418A2143A9
:1010400005E0018A214306E01DB1418AA1434182A6
:1010500070BD018AA143018270BD70B50D46144672
:10106000FFF71BFF002801D00DB1448370BD04833E
:1010700070BD70B50D461446FFF70FFF002801D074
:101080000DB1C48370BD848370BD10B50C46FFF7ED
:1010900004FF002801D00CB1C08A10BD808A10BDA9
:1010A00070B50C4615461E46FFF70EFF00280AD005
:1010B00026B1032C07D8015D294303E0032C02D895
:1010C000015DA943015570BD70B50C4615461E461D
:1010D000FFF7FAFE00280CD02EB1032C09D82044CB
:1010E000017C294304E0032C03D82044017CA9435C
:1010F000017470BD70B50C461546FFF7E5FE00287B
:1011000003D0032C01D82044057670BD70B50C4681
:101110001546FFF7D9FE002803D0032C01D8204440
:10112000057770BD10B50C46FFF7CEFE20B1032C3D
:1011300002D82044007D10BD002010BD00C0092051
:10114000008002402849012806D0002803D1886A7F
:1011500020F0080088627047886A40F00800F9E7CC
:10116000012800D1052201B90A221F48C267704731
:10117000F0B502784178857852001B4E102901D3D2
:101180001039521C4900032356F8224003FA01F794
:10119000BC438D402C4346F822400278124E4178E1
:1011A000C57852004036102901D31039521C49002D
:1011B00056F822408B409C438D402C4346F82240F9
:1011C000017843780479084801226830012C50F8EE
:1011D000214002FA03F204D034EA020440F821402C
:1011E000F0BD1443FAE7000000C002400068084068
:1011F00000D00120704701607047012228B101280A
:1012000002D1002048700A7070470A704A60704727
:1012100070B504460E46154601214020FFF7A3FD98
:1012200000210C20FFF764FD0C20FFF789FD002250
:1012300001463F202060626022676261A262E26430
:1012400022655EB1012E08D1687800F0030128788C
:1012500061F39F00216F0843206770BD287870B14B
:101260006B680025A3FB010605FB016103FB02116E
:10127000884A2B4601F05AFF401EE06070BD686846
:10128000FAE7002141604020FFF76DBD0129416868
:1012900003D001F003014160704741F00801FAE713
:1012A0000129416803D001F00A014160704741F013
:1012B0000101FAE7416841F002014160416801F033
:1012C00009014160704730B50A784D7802F0070295
:1012D00002EB4203012202FA03F46F4B012D26D0E8
:1012E00023EA0405446925404561CC78012C0C783B
:1012F00004F0070404EB440404F1010402FA04F4CA
:1013000019D0456923EA04042C4044618C7809789B
:10131000012C01F0070101EB410101F1020102FA88
:1013200001F20BD0416993430B40436130BD4569E5
:101330002C434461D9E745692C43E6E741690A43F8
:10134000426130BD70B50C784E7804F00205012280
:101350003F23012E65F35F0426D002FA04F4856A68
:1013600023EA04042C4084628C78012C0C7804F06D
:10137000020565F35F0404F101041BD002FA04F4D2
:10138000856A23EA04042C408462CC780978012C15
:1013900016D001F0020464F35F01891C8A40816A5F
:1013A00093430B40836270BD02FA04F5846A2543BF
:1013B0008562D9E702FA04F5846A25438562E4E789
:1013C00001F0020363F35F01891C8A40816A0A43CA
:1013D000826270BD19B1012903D000207047C06A34
:1013E0007047006B704710B5072912D2DFE801F093
:1013F0000406080A0C0E100082610AE0C26108E0CF
:10140000026206E0426204E0026402E0426400E03C
:101410008264046D072902D201228A4000E0002282
:1014200014430465002B07D1416841F0020141607B
:10143000416801F00901416010BD01238B40002A81
:10144000C26C01F0070105D0022900D200231A4323
:10145000C2647047022900D2002347F67C61994399
:101460000A40F5E710B5012301F10804A340012A61
:10147000C26C4FEA417101D021B104E001B90023EF
:101480001A4304E0002347F67C6199430A40C26492
:1014900010BD000040420F00FFFF1F000068012246
:1014A0008A40104010F0FF0000D001207047006813
:1014B000091D01228A40104010F0FF0000D00120D9
:1014C0007047026801238B401A430260704702682C
:1014D000091D01238B401A430260704710B10020A0
:1014E0004870704701200870486070472DE9F05F30
:1014F0004FF0402BA44FDFF89492DFF894A20446FB
:1015000088461646584506D101210220FFF72BFCDC
:101510000021022019E0BC4206D101210420FFF77E
:1015200022FC0021042010E04C4506D10121880551
:10153000FFF719FC00212C2007E0544507D10121B9
:10154000C805FFF710FC00212E20FFF7D1FBA06A91
:1015500020F00300A062A06AA0620020A0602061C9
:10156000E060606840F002006060606820F00200A7
:1015700060604FF0FF35B8F1000F07D0A06A20F08F
:101580000C00A0627078012837D03AE0307820B1A2
:1015900028465C4503D100200CE070682AE0BC427C
:1015A00001D1012006E04C4501D1022002E0544562
:1015B00000D103207668010006D0012906D0022957
:1015C00006D0032809D105E0022004E0042002E04F
:1015D0002C2000E02E20FFF7B3FBA0FB06730021B8
:1015E0000A4601FB063100FB02113846694A002316
:1015F00001F09CFD401EE06003E0A06A40F00400A2
:10160000A0622560BDE8F09F00214160B0F1402F4D
:1016100005D05D49884205D1002104200CE000215D
:10162000022009E059494FF48002884202D058490B
:10163000884203D100211046FFF795BB704701296E
:10164000416803D021F001014160704741F0010180
:10165000FAE7416841F002014160416821F002016E
:101660004160704730B50A7832B1012A07D0022AAA
:1016700008D0032A09D0FEE78A68826107E08A68F9
:10168000C26104E08A68026201E08A6842624269DB
:101690000B7803EB43040723A3409A4342614B7842
:1016A00001223BB143690C7804EB440402FA04F4D0
:1016B00023434361CB7843B143690C7804EB440482
:1016C000641C02FA04F4234343618B783BB1436901
:1016D0000C7804EB4404A41CA24013434361C36B85
:1016E0000C78042202EB44050324AC40A343C363FB
:1016F0000B79097803F0030302EB41018B40C16BC6
:101700000B43C36330BD31B1012906D0022906D095
:10171000032906D0FEE782617047C261704702620A
:1017200070474262704710B5826A0B7803EB43043E
:101730000723A3409A4382624B7801223BB1836A1C
:101740000C7804EB440402FA04F4234383628B789C
:1017500043B1836A0C7804EB4404641C02FA04F479
:1017600023438362CB78002B07D0836A097801EB8F
:101770004101891C8A401343836210BD09B1006B8B
:101780007047C06A704700000080004000000940B8
:101790000040094040420F002DE9FE4F0D46002158
:1017A00002910121009100218A4689460191F9495F
:1017B000DFF8DCB30446884201D106200DE0F6498B
:1017C0008C4201D1082008E0F4498C4201D130203C
:1017D00003E0F3498C4202D13220FFF7B1FA4FEA1D
:1017E000101801204FF6FD76002100FB08FC42187E
:1017F000BCFBF2F3B3FBF5F205FB1237B7EB550F69
:1018000000D9521CD71EB7420FD2B3FBF2F3AB4242
:1018100001D8EB1A00E05B1B99465B4505D2924666
:101820005FEA030BCDE9000108D0491C0F29DED97E
:10183000B9F1000F02D0401C0F28D5D905EB4500A7
:101840006421B0FBF1F1594502D80298BDE8FE8F42
:10185000D1488442207B40F0800020734FEA1A2058
:10186000207184F800A0207B00F07F002073009896
:101870004FEA001006D10199C0B201F00F010843F0
:10188000A06205E0019901F00F01084384F82800E7
:1018900001200290DAE72DE9F05F0446BD48DFF849
:1018A000FCB2DFF8FCA20027BB4E0D464FF08008CB
:1018B0004FF00709844204D101210820FFF753FAB1
:1018C00006E0B44204D101211020FFF74CFA06E0F3
:1018D0005C4504D101210806FFF745FA06E05445AE
:1018E00004D101214806FFF73EFA1DE0B4421BD1A6
:1018F00084F80890277200E02078207DC007FBD193
:1019000084F83080207D8006FCD584F830706760D4
:1019100027732762277484F84C7084F8547084F815
:101920005070207E207D16E084F80890277200E039
:101930002078207DC007FBD184F83080207D800690
:10194000FCD584F83070676027732762207D54458A
:1019500001D184F8247020462968FFF71DFF207B01
:10196000697900F0C00029B1012910D0022911D0F5
:1019700040F003002979C1B140F00800012914D0DA
:1019800002290AD003290BD004290ED10BE040F024
:101990000100EFE740F00200ECE740F0100004E047
:1019A00040F0200001E040F03000A979012901D188
:1019B00040F004002073BDE8F09F774A012904D06D
:1019C00010F8302F00210170704710F8301F41F0DF
:1019D0008001F8E770B504460021FFF7EEFF6D497E
:1019E0006D486E4D6E4E8C4204D100210820FFF7E9
:1019F000BAF906E0844204D100211020FFF7B3F9C0
:101A000005E0AC4203D100214FF0807004E0B44205
:101A100006D100214FF00070BDE87040FFF7A3B978
:101A200070BD4FF416510160032141710021017115
:101A300081717047584A0170704757490078704764
:101A4000F0B5012B06460D4614464FF0000330D189
:101A50004FF0FF3C18E0604602E048B3A0F10100FF
:101A6000317D8906F9D518B310270AE015F8011B56
:101A70003046FFF7DFFF7F1EA4F1010403F10103ED
:101A800002D0002CF2D116E0002CE4D113E0307D1E
:101A9000800610D5102709E015F8011B3046FFF726
:101AA000C9FF641E7F1E03F1010302D0002CF3D195
:101AB00001E0002CEBD11846F0BD70B5012B0546B6
:101AC0000C464FF000031DD15E1E0EE0304601E0D3
:101AD000D0B1401E297DC907FAD0A8B12846FFF72A
:101AE000ACFF521E04F8010B5B1C002AEED10BE088
:101AF000287DC00708D02846FFF79FFF5B1C04F82D
:101B0000010B521E002AF3D1184670BD2249017BF9
:101B100041F040010173704710B5072914D2DFE886
:101B200001F00406080A0C0E110001230CE0022348
:101B30000AE0042308E0082306E0802304E04FF4D1
:101B4000807301E04FF400731349012A05D08842E5
:101B5000416805D140F28F3204E04168194303E047
:101B600040F207329A431140416010BD0A49884251
:101B700001D1087D7047007D7047806840F2CF3109
:101B800008407047007D40060CD5002070470000DB
:101B9000A086010000C00040000001400080094014
:101BA00000C009400120F1E7CB78012223B1012BCD
:101BB00006D0022B06D0C1224B78012B04D005E0C1
:101BC0004122F9E78122F7E742F004020B78012B6A
:101BD00001D142F002028978012901D142F00802C4
:101BE00002F0CF010172D1E700218170C1700121A3
:101BF00001704170CAE730B50023012A08D10C7882
:101C0000012C00D102234978012901D143F00403BA
:101C1000674D10240021A8420FD1012A0BD1027B6D
:101C200042F08002027301700171017B21F080019A
:101C3000017384620FE0016230BD012AFBD1027B97
:101C400042F08002027301700171017B21F080017A
:101C5000017380F8284043F00101ECE7544A026A1E
:101C60000A43026292E7012907D000298ED110F8B9
:101C7000241F01F03D01017088E710F8241F41F096
:101C80000201F8E7012910F8241F03D001F03E01FA
:101C900001707BE741F00101FAE7CA0010F8241F48
:101CA00021F03801114301F03F0141F004010170BE
:101CB0006CE7002311B1012903D101E0012300E009
:101CC0000223017C012A04D0F3229A4311400174BB
:101CD0005CE71943FBE721B1012904D0022905D1B2
:101CE00003E0102302E0402300E08023017C012A6E
:101CF00004D0F3229A431140017447E71943FBE7EC
:101D0000007E43E7CB780022012B0CD14B791022C7
:101D1000012B00D130220B79012B01D142F00802B6
:101D2000CB7980F854300B78012B01D142F00102BD
:101D30008B78012B04D18B7942F0040280F850306B
:101D4000497809B942F0020202F03F0180F84C10D4
:101D5000017B41F03801017318E7012910F84C1F8D
:101D600003D041F00201017010E721F00201FAE70F
:101D700030B5044663B1257B25F0100020730123A4
:101D80002046FFF75DFE217D4906FCD5257330BD59
:101D90000123FFF755FE217D4906FCD530BD03B573
:101DA00001231A4601A9FFF7E3FF0CBD0023DFE77B
:101DB000000001407CB5012400258DF802408DF81B
:101DC000035017208DF801008DF804508DF8005055
:101DD0006846FFF7CDF98DF8024018208DF8010014
:101DE0008DF800506846FFF7C3F98DF802401920BE
:101DF0008DF801008DF800506846FFF7B9F98DF8AD
:101E000002401A208DF801008DF800506846FFF757
:101E1000AFF903258DF802501E208DF801008DF8D2
:101E200000406846FFF7A4F98DF802501F208DF896
:101E300001008DF800406846FFF79AF9654C644947
:101E40002046FEF7CBFE002211462046FEF717FF84
:101E5000002201212046FEF712FF00220221204627
:101E6000FEF70DFF002203212046FEF708FF0022A7
:101E700004212046FEF703FF002205212046FEF73D
:101E8000FEFE7CBD70B5534C58B1012821D002280C
:101E900037D003284DD0042863D005287AD00020FD
:101EA00070BD012200212046FEF7F5FE01212046EB
:101EB000FEF7BBFE012200212046FEF7FCFE0028B3
:101EC000F8D000212046FEF7F0FE0022054611461C
:101ED00077E0012211462046FEF7DDFE0121204673
:101EE000FEF7A3FE012211462046FEF7E4FE00287D
:101EF000F8D001212046FEF7D8FE00220546012138
:101F00005FE0012202212046FEF7C5FE01212046A6
:101F1000FEF78BFE012202212046FEF7CCFE0028B0
:101F2000F8D002212046FEF7C0FE0022054602211D
:101F300047E0012203212046FEF7ADFE01212046A5
:101F4000FEF773FE012203212046FEF7B4FE0028AF
:101F5000F8D003212046FEF7A8FE00220546032103
:101F60002FE0012204212046FEF795FE01212046A4
:101F7000FEF75BFE012204212046FEF79CFE0028AE
:101F8000F8D004212046FEF790FE002205460421E9
:101F900017E0FFE7012205212046FEF77CFE012124
:101FA0002046FEF742FE012205212046FEF783FE71
:101FB0000028F8D005212046FEF777FE00220546CE
:101FC00005212046FEF767FEC5F30B0070BD00003B
:101FD000400D0300004003402DE9F04101210025A0
:101FE000C803FEF7C0FE224E224F0124705D00227E
:101FF00004FA00F1785DFEF77EFF6D1CEDB2072D4F
:10200000F4D91D4E1D4F00250122705D04FA00F128
:10201000785DFEF770FF705D04FA00F1785DFEF701
:1020200080FF6D1CEDB2072DEED9BDE8F08110B533
:1020300004461048005DFEF77CFF0D4A0121125D49
:102040009140084000D00120C0B210BD30B40A4A0F
:102050000A4C0B00125C4FF00101205C01FA02F106
:1020600002D030BCFEF755BF30BCFEF75ABF0000AF
:10207000290000102100001039000010310000106C
:102080007CB50546401E062849D203208DF8020083
:10209000002496488DF804408DF80340405D8DF88B
:1020A00000009348405D8DF801006846FFF760F836
:1020B00090480126067046608F48415D8D48213862
:1020C000017046708470C6701130A0F1140446553A
:1020D000072D24D2DFE805F023040424244444001F
:1020E0002078864D20B9834A00212846FFF7FEF963
:1020F000804928462139FFF716FB2846FFF7A9FA41
:10210000207800280BD11121032000F0E3F80320F0
:1021100000F0D4F801212846FFF791FA26707CBD23
:102120006078774D20B9734A00212846FFF7DEF921
:10213000704928462139FFF7F6FA2846FFF789FA51
:1021400060780028EBD11121022000F0C3F80220B2
:1021500000F0B4F801212846FFF771FA66707CBDE3
:10216000A0784FF0402520B9624A00212846FFF7A9
:10217000BDF9604928462139FFF7D5FA2846FFF70F
:1021800068FAA0780028EAD11121012000F0A2F815
:10219000012000F093F801212846FFF750FAA670BD
:1021A0007CBD70B557480021524C01604160816090
:1021B000243C544B21700120617004F114051C3B38
:1021C000A1700646EA1D2E5443F820101154401CFD
:1021D000C0B20628F7D90120FFF752FF0320FFF70E
:1021E0004FFF0620FFF74CFF6320A060E0602061F6
:1021F00070BD444951F8200000B27047414A0021A7
:1022000042F8201070473C4A0121537892781B1DF8
:1022100001FA03F0121D9140084338490A6810433F
:102220000860394841694069C1F300123549C0F37B
:1022300040139A42886801D1401E00E0401C88602B
:1022400070472D4A0121D37812791B1D01FA03F042
:10225000121D914008432A490A68104308602A4821
:10226000416B406BC1F380422649C0F3C0439A42A0
:10227000486801D1401E00E0401C486070471E4A7B
:102280000121537992791B1D01FA03F0121D91402F
:1022900008434FF040210A68104308601A48416B18
:1022A000406BC1F380621749C0F3C0639A4208686B
:1022B00001D1401E00E0401C0860704700F01F0282
:1022C0000121914040094FF0E02202EB8000C0F86C
:1022D00000117047C906090E002803DA00F00F004C
:1022E0000A4A00E00A4A8154704700000C000010BE
:1022F00013000010780000101A00001000000940C0
:1023000000800040602B001000C0092014ED00E0A8
:1023100000E400E03EB5012400258DF802408DF870
:1023200003500B208DF8010002208DF800008DF87D
:1023300004506846FEF71CFFFEF74EFD8DF808407E
:102340008DF809408DF80A500120FEF781FD02A8A2
:10235000FEF76FFD0D4908684FF6FF0210400C4A6A
:1023600040F48060104308600A4805700A48E104A0
:1023700001603EBD10B50120FEF76AFD07480178F7
:1023800011B10021017010BD0121FBE70CED00E04F
:102390000000FA0513E400E000E100E00000001096
:1023A00000B58BB032220791CDE9052040483F4A65
:1023B0006946026005A8904700980BB000BD00B5C3
:1023C0008BB03422CDE906013A480890384805928E
:1023D000364A0260694605A890470098EDE700B5C7
:1023E0008BB03323CDE9061032480593CDE90820A0
:1023F0002F482E4A6946026005A890470098DCE7FE
:1024000008B53A2100912A49284A0A6001466846DF
:10241000904708BD264910B5091D08600E210846E1
:10242000FFF7BEFF90B90E210846FFF7C8FF68B955
:102430000E210846FFF7B4FF40B91D484FF48072E3
:102440004FF46041001DFFF7CAFF08B1002010BD26
:10245000012010BD10B504460F210846FFF7A0FF6C
:1024600088B90F210846FFF7AAFF60B90F21084677
:10247000FFF796FF38B94FF480724FF47041204651
:10248000FFF7ADFF08B1002010BD012010BD4FF4D3
:1024900060400068704700214FF4704252F82130CC
:1024A00040F82130491C0429F8D37047F11FFF1F61
:1024B00080000010A086010008B501208DF8010001
:1024C00000218DF800108DF803008DF80210694688
:1024D000FE48FEF7F8FEFE4948200870FD484FF41C
:1024E0000071016008BD2DE9F04385B000258DF82D
:1024F00002508DF8035002268DF8006006208DF8FA
:1025000001004FF480784FF40079402480278DF843
:1025100004506846FEF72CFE07208DF8010068463F
:10252000FEF726FE8DF802508DF8006008208DF829
:1025300001006846FEF71CFE09208DF80100684680
:10254000FEF716FE012221460220FEF7D4FC0122EE
:1025500039460220FEF7CFFC21460220FEF7D9FCC7
:1025600039460220FEF7DDFC012241460220FEF73B
:10257000C2FC012249460220FEF7BDFC4146022072
:10258000FEF7C7FC49460220FEF7CBFC01248DF87C
:1025900002408DF803508DF8006004278DF8045038
:1025A0008DF801706846FEF7E3FD8DF802408DF866
:1025B000006005208DF801006846FEF7D9FD8DF812
:1025C00002408DF800608DF801506846FEF7D0FD9E
:1025D0008DF802408DF800608DF801406846FEF7E6
:1025E000C7FD8DF802408DF800608DF801606846E7
:1025F000FEF7BEFD8DF802408DF800604FF0030835
:102600008DF801806846FEF7B3FDDFF8C0928DF8C3
:102610000C4003AA002148460494FEF7F9FD8DF80A
:1026200009508DF808508DF80B408DF80A5002A91A
:102630004846FEF748FE002202214846FEF7FDFE0E
:10264000002203214846FEF7F8FE002204214846F6
:10265000FEF7F3FE002205214846FEF7EEFE0022BB
:1026600006214846FEF7E9FE01214846FEF718FE1E
:102670000023642219464846FEF7B5FE00231A4699
:1026800005214846FEF7AFFE00231A4606214846BC
:10269000FEF7A9FE00231A4601214846FEF7A3FED5
:1026A00000231A4602214846FEF79DFE00231A46E3
:1026B00003214846FEF797FE00231A4604214846A8
:1026C000FEF791FE01214846FEF7E0FD01220521BB
:1026D0004846FEF7C7FE012206214846FEF7C2FE25
:1026E000012211464846FEF7BDFE0122022148465E
:1026F000FEF7B8FE012203214846FEF7B3FE012291
:1027000004214846FEF7AEFE734944F62060088077
:1027100048808880C880081F0470467080F8028056
:10272000C770FFF7C9FE05B0BDE8F08370B5044679
:102730007F2904D9C1F1FF00C2B2012501E0CAB26C
:10274000002565480123801F0255601DC1B25F4806
:10275000FEF749FE6CB14FF400746610B5B1314616
:102760000220FEF7DEFB2146BDE870400220FEF7A6
:10277000D0BB2DB140210220FEF7D3FB8021F3E72F
:1027800080210220FEF7CDFB4021EDE7214602200B
:10279000FEF7C7FB3146E7E7F0B54F4A0023121FAB
:1027A00017461478FD787E78BF7884420AD0864236
:1027B00001D1012306E0874201D1022302E08542D4
:1027C00000D10323444820F813100188438899421C
:1027D00003D90380418016705470418883889942E0
:1027E00004D9438081805178577091708188C38863
:1027F000994204D98380C18090789570D070F0BDE3
:102800002DE9FC47314E3168DFF8CC906425B9F8EA
:102810000020B2FBF5F2ADF80020B9F80220B2FBBF
:10282000F5F2ADF80220B9F80420B2FBF5F2ADF8EC
:102830000420B9F80600B0FBF5F0ADF80600C807B3
:1028400058D00024E846A9F1040AA9F1080700BFFE
:1028500038F814103888814207D918BB1AF80410C8
:102860004FF001034FF0640226E01CD139F8142028
:10287000B2FBF5F305FB1322AAB14FF0000130467D
:10288000FEF704FD39F814000123B0FBF5F105FB58
:1028900011021AF804103046FEF7A5FD012130465A
:1028A000FEF7F4FC0BE0814202D0491C814206D1C4
:1028B0001AF80410012300223046FEF794FD641C30
:1028C000E4B2042CC4D33888401C07E000800140E7
:1028D00009E400E000E100E09000001080B23880E0
:1028E000C82801D100203880306840F001003060F5
:1028F000BDE8FC873160FBE733B583B000248DF879
:10290000034001208DF802008DF800400B208DF867
:1029100001008DF804406846FEF72AFC0A208DF875
:1029200001006846FEF724FC444D03A92846FEF743
:10293000B2FF02A8FFF758F902A92846FFF734F9B9
:1029400001212846FFF739F8012200212846FFF728
:10295000E3F83B4804703B488460C4600460446012
:1029600039494820087039488021016005B030BDE0
:1029700070B5324D002201212846FFF7CDF8314CC9
:102980002846FFF7FFF80128FAD02E4604F110057B
:102990002068C1B26068C0B281420CD06068002378
:1029A000411901223046FFF74BF820B16068401C06
:1029B000C0B26060ECE720686168C0B2C9B2204C68
:1029C000884207D1002201213046FFF7A5F80020F8
:1029D000207070BD01202070024601463046BDE8DF
:1029E0007040FFF799B838B5144C002301226946AE
:1029F0002046FFF762F80028F7D138BDFEE710B592
:102A00000E4C2046FFF7B9F800F00E00062808D05B
:102A100004280FD00C280DD002280ED1BDE810409C
:102A2000A6E72046FFF7A2F810F09E0005D0C0B23E
:102A3000FFF7E4FFBDE81040D5E710BD0080094076
:102A4000980000106C2B001007E400E000E100E0AB
:102A5000F0B501460278C84802F0030392084370BB
:102A600002704A789B0003EB9213437002F03F021E
:102A7000D308837002F00702C2708A78BF4D02F05B
:102A80003F021409447102F00F028271CE78067180
:102A90000420002311E0E7070CD00F5C01EB000CD1
:102AA0003F0225F813709CF801C0801C674425F88C
:102AB000137080B25B1C9BB26408002CEBD1002326
:102AC00011E0D4070CD00C5C05EB430C24020F186A
:102AD000ACF804407F78801C3C44ACF8044080B2E1
:102AE0005B1C9BB25208002AEBD1002E03D0095C7C
:102AF000401C297380B2F0BDF0B59F49AA26002280
:102B00000B78CC7891F801E00670AB2646700E7811
:102B1000DFF868C2B600C6704F78154606EB970618
:102B2000C6704E780CF10E0CB607F60E06718F7853
:102B30003E44F6000671CF783E4406714E79360168
:102B400046718F793E4446710979817107210EE003
:102B5000DE0709D03CF812604718360A46543CF8A4
:102B60001260891C7E70C9B2521CD2B25B08002B65
:102B7000EED10022BEF1000F16D043549CF80C3069
:102B80004354491CC9B20FE0E3070AD00CEB4206DC
:102B9000F3891B124354B6F90E304618891C737022
:102BA000C9B2521CD2B26408002CEDD18A1E8270C8
:102BB000002203E0835C5D40521CD2B28A42F9D30A
:102BC0004554491CC8B2F0BD30B56B4C6522A41EFB
:102BD000722125786F235DB1027041708170C370DE
:102BE00001716C21417182716E21C171082030BD6B
:102BF000647874B1027041708170C3700171632197
:102C0000417168238371C27101726B2141720A2084
:102C100030BD002030BD30B500231A464C1E02E006
:102C2000855C6B40521CA242FADB084483F001022F
:102C300010F8010C4A40904201D1012030BD002023
:102C400030BD30B58378002403F03F031D092246D0
:102C500003F00F0309D0012D04D0022D02D0032D63
:102C600003D101E0012400E00224102B10D2DFE8A0
:102C700003F00F08080A080A0A0C080A0A0C0A0CD2
:102C80000C0E012204E0022202E0032200E00422F2
:102C9000C078052300B1062303EB440000EB42009B
:102CA000C0B2814201D1012030BD002030BDF0B55D
:102CB000314C0546A41E0020207060700E46284648
:102CC000FFF7BFFF012748B131462846FFF7A3FFB2
:102CD00030B12846FFF7BCFE0120F0BD277000E0B0
:102CE00067700020F0BD0E22244900F050BA23493D
:102CF00014220E3100F04BBA1F48007870471E486E
:102D0000407870471C48807870471B48C0787047EF
:102D1000194840797047184880797047174931F849
:102D200010007047154901EB400080887047124839
:102D3000007970471148007B7047104A0E3222F824
:102D4000101070470D490E31088170470B490E3144
:102D500048817047094A01230E328B40117B10B124
:102D60001943117370479943FBE7044A0E3202EB93
:102D70004000C181704700009B0000107C2D0010B6
:102D80002DE9F04FC2490022835C8B54521C92B251
:102D9000042AF9D302794FF4967C13094FF416787C
:102DA0004FF496694FF4166A4FF4965B4FF4165E33
:102DB0000F2B21D2DFE803F0080B0E1114171A1D98
:102DC0002B2E3134373A3D00C1F820C014E0C1F851
:102DD000208011E0C1F820900EE0C1F820A00BE0A7
:102DE000C1F820B008E0C1F820E005E04FF46153DD
:102DF00001E04FF496430B6202F00F04A5084FF078
:102E000000034FF0010217D0012D1AD117E04FF443
:102E1000E143F0E74FF41643EDE74DF6C023EAE750
:102E20004FF46143E7E74FF4E133E4E74FF4FA335B
:102E3000E1E74FF47A33DEE781F8263001E081F8EC
:102E4000262014F003044FF0020504D0012C05D015
:102E5000022C08D105E081F8243004E081F82450E8
:102E600001E081F82420447926090F2E21D2DFE8E1
:102E700006F0080B0E1114171A1D272A2D303336B1
:102E80003900C1F814C014E0C1F8148011E0C1F891
:102E900014900EE0C1F814A00BE0C1F814B008E0E3
:102EA000C1F814E005E04FF4615601E04FF4964696
:102EB0004E6104F00F04A60817D0012E18D116E0B9
:102EC0004FF4E146F4E74FF41646F1E74DF6C0261D
:102ED000EEE74FF46146EBE74FF4E136E8E74FF4F5
:102EE000FA36E5E74FF47A36E2E78B7600E08A7649
:102EF00014F0030404D0012C04D0022C05D103E00B
:102F00000B7602E00D7600E00A76807904090F2C3A
:102F100021D2DFE804F0080B0E1114171A1D272A1E
:102F20002D3033363900C1F82CC014E0C1F82C80A4
:102F300011E0C1F82C900EE0C1F82CA00BE0C1F814
:102F40002CB008E0C1F82CE005E04FF4615401E03A
:102F50004FF49644CC6200F00F00840817D0012C87
:102F60001AD117E04FF4E144F4E74FF41644F1E7C7
:102F70004DF6C024EEE74FF46144EBE74FF4E13443
:102F8000E8E74FF4FA34E5E74FF47A34E2E781F802
:102F9000323001E081F8322010F0030004D0012823
:102FA00005D0022808D105E081F8303004E081F82E
:102FB000305001E081F83020032001F8190F087328
:102FC000087601F8132C01F80D3C01F8092CCA70A1
:102FD000CA73CA760A770720BDE8F08F002211462F
:102FE000435C491C5A400729FADBC079904201D161
:102FF000012070470020704710B50446FFF7EEFF30
:10300000002803D02046FFF7BBFE012010BD382268
:103010001F4900F0BCB81E4A0021535C4354491CB0
:10302000C9B20429F9D37047194800797047184884
:103030004079704716488079704715488068C0B25B
:1030400070471348007B70471148C089704710488B
:10305000007C70470E4AD2E90512C0E900127047A1
:103060000B4AD2E90812C0E900127047084AD2E9B7
:103070000B12C0E9001270470548007F70470448F2
:1030800090F828007047024890F83400704700001C
:10309000A02D00102DE9F0470C46DDE90D96DDF876
:1030A0003080119F089DFFF77CF8C4F3074008B1FA
:1030B000FEF780FE15F0FF0F01D0FFF714FA16F0AF
:1030C000FF0F03D049464046FFF716FCC7F3072021
:1030D000002803D0BDE8F047FEF77EBFBDE8F087CB
:1030E000FEE710B500F042FF01F03CFA01F062F893
:1030F00002F0EEFB01F004FE01F058FBBDE81040C9
:1031000000F024BC10B500F04BFF01F031FA01F0E3
:10311000BFF801F087FEBDE8104000F03DBD002083
:103120007047704700207047002070472DE9F05F1E
:103130000546002092469B46884606468146402426
:103140001BE0284641464746224600F041F85246D9
:103150005B46801A994110D310461946224600F06A
:1031600028F82D1A67EB01084F462246012000215E
:1031700000F01FF817EB00094E41201EA4F10104D6
:10318000DFDC484631462A464346BDE8F09F40EA28
:1031900001039B0703D009E008C9121F08C0042AD5
:1031A000FAD203E011F8013B00F8013B521EF9D2BC
:1031B0007047202A04DB203A00FA02F10020704711
:1031C0009140C2F1200320FA03F319439040704765
:1031D000202A04DB203A21FA02F00021704721FA6C
:1031E00002F3D040C2F120029140084319467047D3
:1031F000064C074D06E0E06840F0010394E8070044
:1032000098471034AC42F6D3FCF764FFC85B00006B
:10321000E85B0000002001E001C1121F002AFBD181
:10322000704700002DE9F0412A4D0646E87920B1AB
:10323000B00F20D1FFF754FF1DE026F040400F30C3
:1032400020F00307002E03DBFDF734FC0120E871BA
:103250002148B10F4FF0000810D029684268394466
:1032600002EB4202B1EB920F08D9E87918B185F868
:103270000780FDF71AFC0020BDE8F0810468206893
:103280006268011B891AB9420BD204460068002803
:10329000F5D1E8790028CBD085F80780FDF705FC4B
:1032A000C6E7A2B1101921680160206000F108048E
:1032B0004760286838442860E87918B185F80780A5
:1032C000FDF7F3FB2680A4F802802046D4E7676070
:1032D0000834EEE7CC000010685B00002DE9F047F1
:1032E000284D07468946904600262C680BE020783A
:1032F00038B10422394604F10A0001F019FA012814
:1033000033D00E34761C2879B042F0DC1E493846A2
:1033100001F0D6F9B0B91C48001D01F003FB0028EC
:103320002ED000262C680AE0207830B106224946CB
:10333000201D01F0FDF901281CD00E34761C2879DF
:10334000B042F1DC404600F021F8002818D0C0EB74
:10335000C0006FF00D0202EB4000296804220C1837
:10336000394604F10A0001F0F2F906224946201D0F
:1033700001F0EDF96879E070A879A0700320207061
:10338000BDE8F087785B00009C4F0010F0B518494D
:10339000054601221746086803E003784BB10E305A
:1033A000521C0B799342F8DA00204C7901220B6809
:1033B0000DE0077045701046F0BD5E78012E04D117
:1033C000DE78A64201D8344610460E33521C0E79E0
:1033D0009642F2DA0028EFD00968C0EBC0026FF025
:1033E0000D0303EB420211440F704D70F0BD00005D
:1033F000785B00002DE9F0410F468046254901F039
:103400005FF940B9234C201D01F08CFA002839D017
:1034100004F104080027204C002625680BE02878DA
:1034200038B10422414605F10A0001F081F9012872
:103430002AD00E35761C2079B042F0DC3846FFF7F2
:10344000A5FF05001DD0134A4146002000F004FAF4
:10345000C5EBC5016FF00D0202EB410120680422AB
:103460004518414605F10A0001F071F906220B49A1
:10347000281D01F06CF9A079A870E079E8700220AD
:1034800028700020BDE8F08128780328F9D3284669
:10349000F8E700009C4F0010785B0000B85B00006C
:1034A0002DE9F041374D287818B93749097A89074D
:1034B00065D5401C28700027344E5BE0C0EBC0008F
:1034C0006FF00D02316802EB40000C182078E0B379
:1034D000E07820B1401E10F0FF00E07047D1607826
:1034E00001280AD104222A4904F10A0001F020F936
:1034F000012806D0607801280FD010F0FF0F01D00E
:1035000035E067702078032823D0A07870B3401E80
:1035100010F0FF00A07029D01DE02078032825D0EE
:10352000A07818B3401E10F0FF00A0701ED002203B
:103530002070F079E07004F10A00054601F0F2F91C
:10354000134A121F10B129460BE010E00021201D84
:1035500008E0042020700E4AF079E070121F04F198
:103560000A010020BDE8F04100F076B92770287804
:10357000401C28703179C0B281429FD22F70BDE8C3
:10358000F0810000D4000010D84F0010785B0000DC
:10359000A04F001030B5074A00210B4601241068E7
:1035A00003E0037044700E30491C15798D42F8DC3D
:1035B00030BD0000785B000001787F2912D00E2218
:1035C000B2EB111F0ED0006860B1411C0AD0064951
:1035D0000A68896842400A4202D10143491C01D06D
:1035E00001207047002070479C4F00100448007A6B
:1035F000002804D0034A0020114600F02DB970477E
:10360000785B00009C4F001003490022486001468F
:10361000104600F021B90000D40000102DE9F04759
:103620001C4E0546002700F1080A00F10E094FF074
:10363000090834681DE02078012818D9E98898FA2B
:1036400088F0B1EB104F0AD10622211D504601F03F
:103650006FF860B10422494604F10A0011E0042227
:1036600004F10A01484601F063F8012806D00E343F
:103670007F1C3079B842DEDCBDE8F0870622514677
:10368000201D01F064F87079E070B079A07003201B
:103690002070F1E7785B00002DE9F04104460088D6
:1036A0002A2850D3608A012109BAB0EB114F4AD1C0
:1036B000A08A4FF4006109BAB0EB114F43D1A07D4D
:1036C000062840D1E07D04283DD1208B04F112056D
:1036D00000BA010C04F12A000646012909D002298A
:1036E00045D0801F082936D009292CD106222A4925
:1036F00043E00422294901F01BF808B1022131E01E
:1037000004F1200104228846304601F011F8002817
:1037100019D0234E00271A34356818E0287803287A
:1037200013D306222146281D01F002F868B10422B5
:10373000414605F10A0001F00AF87079E870B079A5
:10374000A87003202870BDE8F0810E357F1C307909
:10375000B842E3DCF7E706220F4900F0E9FF002852
:10376000F1D009212846BDE8F04100F01DB801F074
:10377000D9F858B104220949304600F0D9FF002891
:10378000E1D02846BDE8F041FFF748BF05490020D9
:1037900049680870D7E70000B20000109C4F001085
:1037A000785B0000D40000102DE9F04105460E3092
:1037B0000E460746FFF700FF083520B101222946D3
:1037C0003846FFF78BFD2A20FFF72CFD0446062222
:1037D0002946001D00F0BBFF06221D4904F10A0026
:1037E00000F0B5FF40F6060000BA000C2082012070
:1037F00000BA000C60824FF4006000BA000CA08296
:103800000620A0750420E07530BA000C2083062243
:10381000294604F1240000F09AFF0422394604F1FD
:103820002A0000F094FF0622094904F11A0000F072
:103830008EFF0422074904F1200000F088FF204693
:10384000FDF73DF92046BDE8F04100F04FBC000017
:10385000B20000109C4F00102DE9F04105460F46C4
:1038600016462A20FFF7DEFC04460DB1294600E08B
:1038700024490622201D00F06AFF0622224904F195
:103880000A0000F064FF40F6060000BA000C208237
:10389000012001BA090C6182C10209BA090CA18296
:1038A0000621A1750421E17505B1082000BA000CBC
:1038B00020830622144904F11A0000F048FF0DB1DC
:1038C000294600E01149062204F1240000F03FFFE0
:1038D00006B90E4E0422314604F1200000F037FFF5
:1038E0000FB1394600E00949042204F12A0000F032
:1038F0002EFF2046FDF7E3F82046BDE8F04100F03A
:10390000F5BB0000B85B0000B2000010BE5B000019
:1039100000B5002200F006F8C04380B200BA000CE7
:1039200000BD000005E000BF30F8023B891E5BBA15
:103930001A440129F8DC11B1007802EB002290B2A0
:1039400000EB124000EB104080B2704770B5104A97
:103950000321002001F09AFF0E4C00256070A0B1F9
:10396000442101F0C1FF04220B4904F1080000F0DA
:10397000EEFE04220021084800F004FF032020701E
:1039800000F00AFCA061658070BD257070BD00006C
:103990009D390000F84E00109C4F00102DE9F05F9B
:1039A000794D88460A9F69781C46814274D12878EF
:1039B000062871D0432A6FD1EC2F6DD320780228CE
:1039C0006AD16078012867D1A07806287ED1201DB1
:1039D00000F0A8FFA969884278D106226B4904F15A
:1039E0001C0000F0A5FE002871D004F1EC0000F0EE
:1039F00099FF6749884269D129780026891E04F118
:103A0000100B05F1080A4FF00609082943D2DFE838
:103A100001F086B90444B986860404220021281DD9
:103A200000F0B0FEF0210FE0605C342806D03528AD
:103A300006D160188078022848D101E060188678A5
:103A4000204601F021F80146B942EDD3F00706D037
:103A50006C21204601F018F80146EC28F9D3B00794
:103A600006D52C21204601F00FF801466C28F9D329
:103A7000281D00F057FF002829D0052028700422B7
:103A80005946504600F063FE032000F067F9042019
:103A9000A8830820E88375E018E041460422A84680
:103AA000281D00F045FE30B104225946504600F072
:103AB0003FFE00280BD0F0251AE0605D342810D0BE
:103AC000352810D160198078052802D00020BDE883
:103AD000F09F88F80090042251462E4800F037FEEF
:103AE00001E0601986782946204600F067FF054608
:103AF000BD42E2D3F00706D06C21204600F05EFF05
:103B00000146EC28F9D3B00706D52C21204600F059
:103B100055FF01466C28F9D3FFF768FD32E0F0212C
:103B20001CE0605C342813D0352813D160188078ED
:103B3000062802D0052808D00CE0032028700422B3
:103B40000021144800F01EFEC0E785F8009001E057
:103B500060188678204600F0FDFE0146B942E0D3A9
:103B6000F00706D06C21204600F0F4FE0146EC2858
:103B7000F9D3B00706D52C21204600F0EBFE014614
:103B80006C28F9D30120A2E7F84E0010B200001013
:103B9000635382639C4F00102DE9F05F6C4C2678D4
:103BA000002E45D004254FF00809012E21D0694888
:103BB0004FF00008032E007A2CD0800738D560889B
:103BC0002346401C6080988BB61E401E81B2D88B65
:103BD0005B6942040325120C5B1E4FF0050B4FF08E
:103BE0000A0A082E24D2DFE806F025232C7C848CD8
:103BF000A13F02202070A583A4F81E90564800F033
:103C000091FE28B1524804225349083000F09FFD2C
:103C100003201EE0C0070BD02570A4F8028000F03E
:103C2000BBFAA061012000F099F8A583A4F81E90CA
:103C3000BDE8F09FA1830029FAD1202856D925702C
:103C4000F6E7A1830029F3D1202806D8A083E283D8
:103C50000120BDE8F05F00F081B884F80C805820A6
:103C6000A08309202070E3E7A18339B97820A083DD
:103C700000F092FAA061012000F070F8344E207B31
:103C80000C3660B1E08B0028D2D0401E0004000C3E
:103C9000E08315D03046BDE8F05FFFF7B5BCE583A3
:103CA00000F07AFA010CA9202073FE206073080A44
:103CB000A073E17301D0FF28ECD1801CA073E9E769
:103CC00004223146244800F042FD2348FF210172BE
:103CD000417280F80A8080F80B80BDE8F05FFFF742
:103CE00085BCA1830029A3D12028A8D2A083E28388
:103CF0008EE763612069401E206199D10720207002
:103D000004E0636143B1A183002991D1032000F055
:103D100025F8A4F81CA08BE784F80090032000F09D
:103D20001DF8A4F81CB0A4F81EA081E7A183002907
:103D300086D1401E0004A4F81CB0000CE083D7D14B
:103D40002570BDE8F05F0422034800F01BBD0000B1
:103D5000F84E0010D84F00109C4F00102DE9F84F7E
:103D6000DFF8DC810746012698F80000062801D01C
:103D7000072800D1002673484FF496750068007834
:103D800008B14FF4AA75A8B201F078FD04462A469E
:103D9000002100F0F7FC4FF0010A84F800A084F83D
:103DA00001A00620A0700020E0704546201DD8F834
:103DB000181000F0C6FD698804F1080000F0BDFD90
:103DC00016B14FF4004100E0002104F10A0000F0B8
:103DD000B4FD2878A846062803D0072801D0082873
:103DE00005D10422584904F10C0000F0B0FC062271
:103DF000564904F11C0000F0AAFC554904F1EC00FE
:103E000000F09FFD352004F8F00F3D2184F801A05B
:103E1000A770E1700721217184F805A0A4F1F004D6
:103E20004FF00602494904F1F60000F090FCFC2531
:103E3000012F31D0032F01D0042F6AD198F8000050
:103E40004FF0040907280FD008280DD0322084F83D
:103E5000FC003B4984F8FD9004F1FE000422083187
:103E600000F075FC4FF4817598F80000012811D01E
:103E700002280FD007280DD008280BD03620605517
:103E80006019042280F80190801C08F1040100F000
:103E90005EFCAD1D042F3CD02E484FF00C0B04F8F7
:103EA00005B06719C168B81C00F040FEC1B2797056
:103EB000244FAD1C0D443868007868B13C20605533
:103EC00004EB050909F10200396800F02FFEC1B2C8
:103ED000AD1C89F801100D4437206055601903218D
:103EE00080F802A0C1700621017180F805B033216D
:103EF00081713A21C1713B2101723979C90705D01D
:103F000043214172082141700A3502E007214170C6
:103F10000935FF2060556D1C4FF49670854200D224
:103F20000546A8B200900EB10B4901E008F104016A
:103F300098F801002346432201F06AFDBDE8F88F9E
:103F4000F84E0010845B00009C4F0010B20000107F
:103F500063538263685B0000A85B0000062202498D
:103F6000001D00F0E5BB0000B200001010B5FCF72A
:103F7000A1FDFCF798FC0748002101704170FCF797
:103F800094FDFFF707FB0621034800F0EBFB034914
:103F9000486010BD184F0010B2000010D84F00103C
:103FA00070B5AFF30080FFF77BFA25490A784878AF
:103FB000824243D001EB8002401C546800F01F0095
:103FC0004870208A00BA000CB0F5006F07D0A0F549
:103FD000006006382DD12046FFF75EFB29E0002166
:103FE000204600F0F9F900B304F11E000546FFF782
:103FF000E3FA28B1012204F10A012846FFF76EF91D
:10400000E07E012806D0022808D006280ED011280C
:104010000FD107E0204600F0D5F80AE02046FFF770
:1040200080F806E0204601F097FC02E0204601F00F
:1040300007F82046BDE8704000F058B870BD000099
:10404000184F001070B5044600F12205234E0422DB
:104050002349284600F06CFB50BB04F11E0000F021
:1040600061FC002838D02A780E2300200121B3EB10
:10407000121F0CD1217160715E20A071687800F070
:104080007F00E071A8782072E878607215E015482A
:104090002968026880684A40024202D10843401CF5
:1040A00006D001212846FFF7A5F9002814D0061DE7
:1040B00006223146201D00F04AFB06220A4904F17F
:1040C0000A0000F044FB4FF4006000BA000C2082AC
:1040D0002046FCF7F4FC012070BD0000B85B000036
:1040E000A85B00009C4F0010B20000102DE9F041C9
:1040F000002836D01C4DA0F10807E87908B101204E
:1041000013E0DFF868800026D8F80040FCF7D2FC06
:104110000120E87100200DE0264624682168890707
:1041200007D0E871FCF7C1FC0220BDE8F041FEF7C2
:10413000D7BF5CB1BC42EFD129686268891A296097
:10414000D8F80010A14205D1606005E0E871FCF7E5
:10415000ACFCD4E721683160E871BDE8F041FCF7C0
:10416000A4BCBDE8F0810000CC000010685B00003A
:1041700010B50346074C084600224FEA0363014688
:104180004FEA4000594000D560405B00521C082AAD
:10419000F5D310BDB71DC1040449054A4868504312
:1041A00043F239021044486070470000D84F0010B5
:1041B0006D4EC641024800210170418070470000E9
:1041C000E84E0010F8B5044630F8261BFFF7A0FBB8
:1041D000002858D194F82600002704F11E0648B3A1
:1041E000082850D194F82700F0BB20882230FFF730
:1041F00019F880F8267080F8277007852288054610
:10420000121F04F12A012A3000F0A1FA218805F1D9
:104210002600FFF77DFB28852088288080200090DD
:10422000002301223146284600F0CAF92846FFF74C
:104230005DFF26E0154D2878C00723D094F82700AD
:1042400090B9042205F10C01304600F071FA002803
:1042500018D0618DA88809BAB0EB114F13D120880E
:104260001A2810D1612000E00DE0211811F8331C4C
:10427000814208D1401C7328F5DBA96800208847DB
:104280002F700120F8BD0020F8BD0000E84E00109E
:1042900010B50E4C2078C00710D0608828B10C49AA
:1042A000097AC9070AD0401E07E0607838B1401E7D
:1042B000607000F011F80748007A608010BDA168B6
:1042C000012088470020207010BD0000E84E00103B
:1042D000D84F0010685B000038B51A4DE888401CC4
:1042E000E8803C20FEF79EFF082180F82610002180
:1042F00080F8271004460185A88800BA010C618562
:10430000E88800BA010CA1856120211801F8330C5E
:10431000401C7328F9DB1A2104F12600FFF7F8FA94
:1043200020851A2020808020064900900023012249
:104330000C31204600F044F905462046FFF7D6FE32
:10434000284638BDE84E00100B4910B508380968FA
:10435000002203E00A460968002909D08142F9D108
:1043600006484C6803681B1B036012B108681060A4
:1043700010BD0020486010BD685B0000CC0000103C
:1043800010B500F013F8074800213C22018041805D
:10439000017205493C3800F0DAF9BDE81040FEF73B
:1043A000A0BE0000D84F00102C5B000010B5FCF739
:1043B00081FB08480649D0E9002013181B1F002084
:1043C000136018605060086088808871C87110BDE3
:1043D000CC000010685B00002DE9F0410446808AA3
:1043E0000E4600BA050C218805F10E00814245D326
:1043F000A07C0421B1EB101F40D1032E32D02649FE
:1044000006EB860001EB800104F12200042207463E
:1044100000F08EF930BB04222049384600F088F9BC
:1044200000BB5EBB39780E223846B2EB111F04D1B7
:10443000FEF775FE012810D009E0174839680268B8
:1044400080684A40024202D10843401C05D0204601
:10445000FFF784FD90B1E07E02E0E07E022801D00B
:1044600011280BD104F1120000F01AF830B9208B9A
:1044700043F6FF7109BA10EA114F02D00020BDE8DF
:10448000F081A07C0007800E00F10E016180281AE7
:1044900020800120F3E700009C4F0010A85B000083
:1044A00001780907890EFFF733BA00002DE9F041C2
:1044B00007460078274D7F2809D0274CA07AC007EF
:1044C00018D02649384600F0FBF8A0BB0CE00320CA
:1044D000287104222249384600F02AF908B904203C
:1044E00028711F48BDE8F0810422FF21384600F002
:1044F00050F900BBA07A8107184800F114008046EB
:1045000004D50146384600F0DBF8D0B9A07A134E46
:10451000400706F1280604D53146384600F0D0F8A9
:1045200098B9A17A0A2088430BD0C9B214208843D5
:104530000BD0C80703D0002028710848D2E78807AD
:1045400003D5012028714046CCE70220287130466F
:10455000C8E70000BC000010685B00009C4F001022
:10456000AC5B00000149002008607047BC000010EF
:10457000124810B50468002C1FD061680160032147
:104580002046FFF729FF012812D1E07E012804D040
:1045900006280AD011280BD103E02046FFF712FEAF
:1045A00006E0204601F0D8F902E0204600F048FD80
:1045B0002046BDE81040FFF799BD10BDBC000010BB
:1045C0002DE9F0410446069D0E46012A05D0022A37
:1045D00003D0062A01D0112A6ED138484527018818
:1045E000491C89B201802088A774143080B200BAB7
:1045F000E374000CA08208BA000CE082062A28D0DE
:1046000000202083A576E2760025A5833046FFF7BB
:104610004DFF0146042204F11E0000F098F8042228
:10462000314604F1220000F092F804F112008046B5
:10463000FFF736FFA0832088204E223080B2361D3F
:1046400020803179052937D2DFE801F0080D1318F1
:1046500034004FF4804000BA000CD2E72046BDE899
:10466000F041FFF7EFBC2046BDE8F0412121FEF705
:1046700059BD2046BDE8F041FEF756BD274640F043
:104680008040FEF7CFFD040011D03A8841460E3A33
:1046900004F1120000F05BF865603068012508B98C
:1046A000346004E0416809B10846FBE744602846ED
:1046B000BDE8F0810120FBE70020F9E7B800001019
:1046C00000680A6842408868024201D000207047B2
:1046D00001207047134830B4427A0021012A03D0E8
:1046E000017230BCFEF70EBD4172027A0E4C42F0F0
:1046F000010202724388647A23449BB24380B3F57B
:104700007A7FEED3418042F0020101720188074AAC
:10471000491C01804168514343F239021144416010
:10472000DFE70000D84F0010685B00006D4EC64107
:1047300010B508E003780C78A34201D0002010BD2A
:10474000401C491C521E002AF4D1012010BD10B596
:1047500004461046002302E0CA5CE2545B1C83421C
:10476000FADB10BD70B504460D464FF0FF3006E091
:10477000227801461046FFF7FBFC641C6D1E002DDD
:10478000F6D170BD002301E0C1545B1C9342FBDBFA
:10479000704706E003788B4201D000207047401C30
:1047A000521E002AF6D101207047000010B5074ABA
:1047B0000321002001F06AF805490028087004D0A0
:1047C000BDE81040892101F08FB810BDD547000029
:1047D000CA0000102DE9FF4FDFF838B181B01C4648
:1047E0009BF800100E9F81427ED1892A7CD1322F06
:1047F0007AD360884FF4887109BAB0EB114F73D146
:10480000A1884FF0010A9AFA8AF0B1EB104F7ED1DD
:10481000E188002002BAB1EB124F78D1218902BAA7
:10482000B1EB124F73D16189814600BAB1EB104FE1
:104830006DD12820FEF7F6FC064604F10D01002597
:104840000A7813014A78A3F58263413A1A43425524
:10485000891C6D1C102DF3D3411911F8011C09B1ED
:10486000202901D16D1EF7D12B4806F80590C168AB
:1048700006F11400804600F062F96A1C4146304699
:10488000FFF756FF01283BD10C37B8B2804600F045
:10489000F5FF0546208828804FF4054000BA000C3B
:1048A000688099FA89F0000CA8809AFA8AF0000CC6
:1048B000E88099FA89F0000C288199FA89F0000CB7
:1048C0006881277B04F10C01BA1D05F10C00FFF78C
:1048D0003EFF1237E81908221049FFF738FF083762
:1048E000E81904220E4900E011E0FFF730FFCDF88F
:1048F00000802B4689229BF80000029901F088F87D
:104900003046FFF7F3FB012005B0BDE8F08F002033
:10491000FAE70000CA000010685B0000B05B00000E
:104920009C4F001001784278090641EA02418278E2
:10493000C07841EA0221084370470A0A02704170B8
:1049400070470A0E02700A0C42700A0A8270C17027
:104950007047000070B50D46174E415D44193A2965
:1049600017D003DC11B333291CD104E03B2915D047
:10497000FF2917D11CE0A01CFFF7D4FF00EB80013A
:104980000A22B1FBF2F1C0EBC000C008C6E9041076
:1049900008E0A01CFFF7C6FF306103E0A01CFFF792
:1049A000C1FF70616078AD1C284470BD681C70BD8B
:1049B0004FF0FF3070BD0000F84E00102DE9F041BF
:1049C0000646405C2E4F8D1C7418332829D009DC14
:1049D000032814D003DC90B3012847D10BE006284C
:1049E00044D113E03A282BD03B282ED0432831D095
:1049F000FF283BD140E0A11C0422224803E02148CB
:104A0000A11C0422001FFFF7A2FE2FE01D48042274
:104A100000210830FFF7B6FE1A48A11C6278001D7D
:104A2000F1E7A01CFFF77EFF00EB80010A22B1FB3B
:104A3000F2F1C0EBC000C008C7E9041016E019E0AD
:104A4000A01CFFF76FFF386110E0A01CFFF76AFFA2
:104A500078610BE0607800213044475D4155A11C2E
:104A60004320FBF74AFC607830444755607828447F
:104A7000BDE8F081481CFBE74FF0FF30F8E700008D
:104A8000F84E0010A44F001070B50C46015D71B1D6
:104A90000519362902D0FF2905D10AE0A91C0422F4
:104AA0000548FFF754FE6878A41C204470BD601CC4
:104AB00070BD4FF0FF3070BDFC4E0010084A30B49E
:104AC00013785478591C01F01F018C4205D002EB79
:104AD00083035860117030BC704730BCFFF734BCA2
:104AE000184F00102DE9F0410F4DEA7922B1BDE8D1
:104AF000F0410020FEF7F4BA0180A0F108040F3164
:104B0000606821F00306B0420CD9871BFBF7D2FF87
:104B100066602868C01B28600020E871BDE8F0418D
:104B2000FBF7C3BFBDE8F081CC00001002460020B7
:104B30000B5C1354002B01D0401CF9E770470A7836
:104B4000A2F16103192B00D8203A0270002A02D08A
:104B5000491C401CF3E77047C8B10E490A798242EC
:104B600015D300EB400202EBC00009686FF02B0286
:104B700002EB800008448178090708D401780A29EB
:104B800005D1D0E90410814201D1012070470020F5
:104B900070470000945B00002DE9F04106001746C5
:104BA0001D46884620D0244C2079B0421CD30846AC
:104BB000FFF7B8FE002818D0B7B106EB460101EBAD
:104BC000C6016FF02B02206802EB810100EB0104AB
:104BD0006078800708D52078012808D0022803D102
:104BE00055B16089A84207D00020BDE8F08115B911
:104BF00000F02CF80546658104224146201DFFF790
:104C0000A6FD27810025A5704FF40670A08141F212
:104C10001C10E081FFF7C0FA2061401CC4E90505C3
:104C2000022084F82200304600F008FD04212046CE
:104C300000F0E6FD0120D8E7945B000010B53630A7
:104C4000FEF7F0FA362141803A3010BD70B50E48BB
:104C50000E4A4FF480644188491C89B24180A142C8
:104C600000D2448000234588116807E04E89AE4297
:104C700002D10E78012EEED82C315B1C16799E42A3
:104C8000F4DCA8B270BD0000C4000010945B00000A
:104C90002DE9F0411F2803D813B10E4E1AB103E0DD
:104CA0000020BDE8F081F2890125346803E027780F
:104CB00047B12C346D1C3779AF42F8DA0420FEF787
:104CC0000FFAEDE7012626706070E170A362A283FF
:104CD000E8B2E6E7945B000018B108490A7982421D
:104CE00001D2FF20704700EB400202EBC0000968D0
:104CF0006FF02B0202EB8000085C7047945B0000B1
:104D000003482C21027900684A430021FFF73ABD8D
:104D1000945B000010B5C0B11A4A1379834214D3D2
:104D200099B100EB400303EBC00012686FF02B0356
:104D300003EB800010444278D20706D00278012AA3
:104D400005D0022A03D0092A01D0002010BD02227A
:104D5000027000228270028141814FF406718181CC
:104D600041F21C11C18102614261826180F82220FE
:104D700080F82320426204220021001DFFF702FD7B
:104D8000012010BD945B00002DE9F041244D064642
:104D9000012701F10C082C6817E02078022812D9AD
:104DA0003088218900BAB1EB104F0CD1718860892D
:104DB00009BAB0EB114F06D104224146201DFFF77E
:104DC000B7FC012809D02C347F1C2879B842E4DADA
:104DD000707B10F0150F20D102E0F8B2BDE8F08131
:104DE00080071AD501272C6814E0207802280FD1FB
:104DF0007188608909BAB0EB114F09D1042241468C
:104E0000201DFFF7A4FC308800BA000C2081E4E7E5
:104E10002C347F1C2879B842E7DA0020DEE7000056
:104E2000945B00002DE9F0478248834D037AD80750
:104E300012D0002128680CE0028C12B1A2F101020C
:104E400002849A0703D5C28B0AB1521EC2832C304A
:104E5000491C2A798A42EFDC00274FF011084FF0F5
:104E60009009764EC8E03078401CC0B23070297985
:104E7000884201D901203070C0B200EB400202EB41
:104E8000C0006FF02B02296802EB80000C1820781C
:104E90000B286FD2DFE800F0AFAFAF787897A59717
:104EA000978B0600D4E90410401AA178CA0700D0F5
:104EB00038B1E28B72B100285CD0208C002859D127
:104EC0003FE084F822806069401C6061307800F027
:104ED000B5FB34E06078C0061FD5C8060FD4C8B251
:104EE00040F01000A07084F82290307800F0A6FB0B
:104EF000E8882084687984F82300BDE8F087208C56
:104F0000002878D194F8230028B1401E84F82300AB
:104F100084F8229061E0C8B232E084F822806069AF
:104F2000401C6061307800F089FBA078221D40F0C1
:104F30000800A070A56A238902213078A8470521BE
:104F400072E094F82300B0B104F11C04401EE0713B
:104F50004FF01800A071A1684FF0000330780A8864
:104F6000174600F07DFBA0680780E888A0802088B5
:104F70006080C2E73FE00021204600F037FCA078C7
:104F800040F00800A0703DE0208CA0BB94F8230006
:104F9000B8B3401E84F82300307800F04FFB20782F
:104FA000032802D068892084A7E7E888FBE7208CE3
:104FB00008BB6078C00701D0022100E00121204633
:104FC00000F01EFC17E0208CA8B994F82300C0B1B3
:104FD000401E84F8230084F82280307800F02EFBF5
:104FE000E3E7208C38B994F8230050B1401E84F8D0
:104FF0002300E88820847F1C2879B8423FF633AF2D
:105000007BE7FFE7042084F82200307800F016FBED
:10501000221DA56A238903213078A8476078C0073C
:1050200001D0022100E001212046BDE8F04700F058
:10503000E7BB0000D84F0010945B0000C4000010D4
:105040002DE9F05F418800F1040B01EB0B050646EA
:10505000287B6FF0030202EA900014287ED3328886
:1050600082427BD30144101A71801FFA80F806F146
:1050700012012846FFF788FE5FEA000A06F11E07C4
:105080006DD000220421381DFEF74CFC024604219D
:105090003846FEF747FC0146F07EFBF729F901464A
:1050A0003088FBF725F9024631882846FEF73AFC9E
:1050B000C0430004000C51D1F9480AEB4A024FF0FA
:1050C0001009016802EBCA006FF02B0202EB8000AE
:1050D0000C182078801E09287BD2DFE800F0C6F685
:1050E000F4F3F2F1F0EF0500687B410704D5A078F6
:1050F00040F00800A070CCE1810712D5C0062DD584
:10510000281DFFF70FFCA169401C884226D105F13C
:105110000800FFF707FC616988421FD184F82290DC
:10512000AFE1D4E9041291423FD0C00616D505F193
:1051300008000746FFF7F6FB01466069814215D17A
:1051400020610021204600F051FBA078221D40F094
:105150000800A07023890421504601E083E0CDE0DF
:10516000A76AB847A07820F008001DE0A0784007A3
:105170001BD53846FFF7D6FB01466069001F814208
:1051800013D12061676A042238883918363107F153
:105190003A00FFF7DCFA3A213846FFF7A3FC042077
:1051A0003880A07820F00400A070A07820F01000D3
:1051B000A070281DFFF7B6FBA16988420AD0281D00
:1051C000FFF7B0FBA169401C8842A7D1A08BE08308
:1051D000A4E767E1A078B8F1000F40F00800A070E4
:1051E0000DD0E08958B17188A66A01EB0B024346E5
:1051F00005215046B047A16901EB0800A061687B1A
:10520000C00717D0D4E90401884213D1221DA56A32
:10521000238902215046A847A069401CA06160690B
:10522000401C6061112084F82200504600F006FA0C
:10523000082116E1A078B8F1000F20F00800A07056
:105240000FD084F822906078000707D5E0894045A8
:1052500002D9A0EB080000E00020E081504600F0F9
:10526000EDF9A08BE083BDE8F09F687B410701D595
:105270000221F6E0C10601D4800704D4394628464D
:1052800000F074FAF4E7221DA66A23890021504633
:10529000B04798B32946504600F00AF9FEF77CFF64
:1052A0002061401C6061281DFFF73CFB00F10100FC
:1052B000A0614FF0120084F8220050E0E6E0BDE06B
:1052C000A3E08FE062E036E0FFE7687B41077AD435
:1052D000C10714D005F10800FFF724FB616988427B
:1052E000C1D1281DFFF71EFB401CA0616069206131
:1052F00084F82290504600F0A1F911E040E0C10688
:1053000016D505F10800FFF70DFB61698842AAD1A7
:10531000281DFFF707FBA1698842A4D160692061BD
:10532000221DA56A238901215046A8470A2198E039
:10533000800798D424E0687B410744D4122636EADB
:10534000000111D080071BD52946504600F0B0F867
:10535000281DFFF7E7FA401CA06184F82260504640
:1053600000F06CF903217CE005F10800FFF7DAFAA0
:1053700061698842B4D12946504600F099F8B0E7F7
:1053800039462846BDE8F05F00F0F0B9687B410778
:105390007FD4C10718D005F108000646FFF7C2FA0E
:1053A0006169884205D03046FFF7BCFA216988421E
:1053B00096D1281DFFF7B6FA404400F10100A06124
:1053C000606920611AE064E0C0067FF54CAF05F12A
:1053D0000800FFF7A7FA01466069814297D10621CC
:1053E00020613EE0687B410753D4C0073FF43BAFE8
:1053F000281DFFF797FA4044401CA06184F82290D2
:10540000504600F01BF909212BE0687B410740D48E
:10541000C10609D505F10800FFF784FA0146606965
:105420008142A7D12061EEE7C007DFD0281DFFF73A
:1054300079FA404400F10100A0616FE6687B410702
:1054400027D4C10612D505F10800FFF76BFA014613
:10545000606981428ED120616078C0077FF412AF0D
:1054600001212046BDE8F05F00F0CAB9C007BDD0F9
:10547000281DFFF757FA4044401CA061112084F812
:1054800022005046BDE8F05F00F0D8B8687B4107C5
:10549000CAD5221DA56A238903215046A847DBE708
:1054A000945B0000BDE8F05F0520FDF719BE000029
:1054B000F0B50A7B6FF0030303EA9205143D33D085
:1054C0001431002240F2B4534FF406742AE08E5C8B
:1054D000002E29D0012E02D0022E1ED101E0521C36
:1054E00020E001EB020E9EF80160042E15D10F4E54
:1054F00000EB400707EBC00736686FF02B0C0CEB96
:1055000087073744BEF8026076BA9E4201D91E462C
:1055100002E0A64200D22646BE818E187678002E82
:1055200002D03244AA42D2D3F0BD0000945B000006
:105530002DE9F05F07461546A1F13A0611B17088D2
:10554000362802D00020BDE8F09F002F54D03A4802
:105550000179B94250D3824607EB4701006801EB5D
:10556000C7016FF02B0202EB8101441820780A2852
:1055700042D1A07800073FD4A089A8423CD3D4E907
:105580000410814238D1B5B32844606105F1360179
:105590003046FFF7A7FA3146204600F027F9607839
:1055A0004FF0180B40072BD5042D29D9A07840F0D7
:1055B0000400A0703A20FDF735FE8046711936319F
:1055C00004223A30FFF7C3F8102084F82200281F85
:1055D00082B2002391463146384600F041F884F803
:1055E00022B04B4604224146384600F039F8404686
:1055F000FEF77CFD10E0FFE73046FEF777FDA1E700
:10560000A078002320F00400A07084F822B02A467D
:105610003146384600F024F83580A07820F010009C
:10562000A070BAF8061021849AF8050084F82300C7
:10563000A08BE083012086E7945B000070B50546EF
:105640003A20FDF7EFFD0446002301461A4628469E
:1056500000F006F82046BDE87040FEF747BD0000A8
:105660002DE9F8430E46174620B13F490A79521CEE
:10567000824202D20020BDE8F88300EB4002884657
:1056800002EBC00009686FF02B0202EB800001EB17
:10569000000406F12605608900BA4FEA1040F08444
:1056A000208900BA4FEA1040308594F822000106A4
:1056B00006D520F0800084F822002169491E01E00F
:1056C0002069C118281DFFF73CF905F10800A16900
:1056D000FFF737F95020287394F822006873E089A7
:1056E00000BA4FEA1040E88100202882688294F8CE
:1056F000220080070CD54FF4017109BA090C71879B
:10570000B8F81010602009BA090CB1872873042773
:10571000201DFEF7CBFE00220421FEF703F902460E
:105720000421201DFEF7FEF801460620FAF7E0FDF1
:1057300001461437B8B28046FAF7DAFD0246394618
:105740002846FEF7EFF8C04380B200BA000C28826A
:10575000A6F8008080200090E3780622211D3046C4
:10576000FEF72EFF87E70000945B000070B51E4E29
:1057700005463279306802EB420303EBC20200EBCC
:105780008204687B40072ED40422201DFEF7DFFF31
:10579000288800BA4FEA10402081688800BA4FEA92
:1057A000104060810020E070697BC9060BD505F1CF
:1057B0000800FFF7B7F82061042084F82200281DB4
:1057C000FFF7B0F807E02061142084F82200281DBC
:1057D000FFF7A8F8401CA0613079BDE87040401C7C
:1057E000C0B2FFF72BBF70BD945B000070B50446DC
:1057F000406A0D4608B1FEF779FC656270BD000095
:1058000030B41A4A002301700B2922D2DFE801F0DC
:10581000232323150B1C1C1C1C060F00118901845B
:1058200080F8233015E091890184917C0FE0818B11
:10583000C183817821F010018170D1880184517970
:1058400080F8231030BC7047D1880184012180F892
:105850002310C383F6E783704FF40671818141F210
:105860001C11C18130BC0021FFF7C0BF945B000058
:105870000149012048727047D84F001010B52A30F6
:10588000FDF7D0FC2A2141802E3010BD70B50329D0
:1058900004D81AB10D4D01242B6805E0002070BD1D
:1058A0001E7846B10C33641C2E79A642F8DA032028
:1058B000FDF716FCF2E701251D709D715970D87037
:1058C00000209880E0B29A6070BD00008C5B000000
:1058D00004480179006801EB41018A000021FEF7CC
:1058E00051BF00008C5B0000F0B570B1184C2279FC
:1058F00082420AD300EB40006FF00B03226803EBF7
:10590000800002441078012801D00020F0BDC9B900
:1059100010484FF480670188491C89B20180B94260
:1059200000D2078000230588216807E08E88AE42F8
:1059300002D10E78012EEED80C315B1C26799E42E6
:10594000F4DCA9B29180022010700120F0BD0000AB
:105950008C5B0000C80000102DE9F8430546418823
:10596000001D0C180821A08800BAB1EB104F44D8D4
:10597000264901200E6844E03278022A3FD163882C
:10598000B2881BBAB2EB134F39D110F0FF0734D0F5
:10599000707805F11E08810722D5E08800B3002247
:1059A000042105F12200FDF7BDFF02460421404617
:1059B000FDF7B8FFEA7E01461046FAF799FC01466A
:1059C000A08800BA000CFAF793FC0246A08800BA3F
:1059D000010C2046FDF7A6FFC0430004000C0CD1CB
:1059E000288804F10803083880B200902088B56840
:1059F00000BA020C41463846A847BDE8F8830C3689
:105A0000401C0A798242B7DAF7E700008C5B00009D
:105A10002DE9F8438946089D9046A3F12E04002BFA
:105A20005BD061882A2958D118B13F490A7982424E
:105A300003D22046FEF75AFB4FE0096800EB400016
:105A40006FF00B0202EB80000E184846FEF76AFF6B
:105A5000E0B3B8F1000F3AD03078022837D1ADB3B7
:105A60004FF4B860854200D90546B088083500BAC1
:105A7000000CE08498FA88F0000C208528BA000C0D
:105A800060850020A085707804F12607C0072CD01F
:105A90004846FEF70BFD00220421FDF743FF0246B6
:105AA00004214846FDF73EFF01461120FAF720FC8D
:105AB0000146A8B2FAF71CFC024629463846FDF713
:105AC00031FFC0430004000C0AD00BE0FFE7B078C0
:105AD000C107AED020F00100B0700020BDE8F8830F
